{
  "_format": "hh-sol-artifact-1",
  "contractName": "APIKeyEscrow",
  "sourceName": "contracts/APIKeyEscrow.sol",
  "abi": [
    {
      "inputs": [],
      "stateMutability": "nonpayable",
      "type": "constructor"
    },
    {
      "inputs": [
        {
          "internalType": "uint256",
          "name": "_orderNumber",
          "type": "uint256"
        }
      ],
      "name": "buyMessage",
      "outputs": [],
      "stateMutability": "payable",
      "type": "function"
    },
    {
      "inputs": [
        {
          "internalType": "address",
          "name": "user",
          "type": "address"
        }
      ],
      "name": "getAddressOrder",
      "outputs": [
        {
          "internalType": "uint256[]",
          "name": "",
          "type": "uint256[]"
        }
      ],
      "stateMutability": "view",
      "type": "function"
    },
    {
      "inputs": [
        {
          "internalType": "uint256",
          "name": "_orderNumber",
          "type": "uint256"
        }
      ],
      "name": "getOrder",
      "outputs": [
        {
          "components": [
            {
              "internalType": "address",
              "name": "buyer",
              "type": "address"
            },
            {
              "internalType": "address",
              "name": "seller",
              "type": "address"
            },
            {
              "internalType": "uint256",
              "name": "price",
              "type": "uint256"
            },
            {
              "internalType": "uint256",
              "name": "duration",
              "type": "uint256"
            },
            {
              "internalType": "uint256",
              "name": "buyTime",
              "type": "uint256"
            }
          ],
          "internalType": "struct APIKeyEscrow.Order",
          "name": "",
          "type": "tuple"
        }
      ],
      "stateMutability": "view",
      "type": "function"
    },
    {
      "inputs": [],
      "name": "getOrderNextNumber",
      "outputs": [
        {
          "internalType": "uint256",
          "name": "",
          "type": "uint256"
        }
      ],
      "stateMutability": "view",
      "type": "function"
    },
    {
      "inputs": [
        {
          "internalType": "address",
          "name": "",
          "type": "address"
        },
        {
          "internalType": "uint256",
          "name": "",
          "type": "uint256"
        }
      ],
      "name": "listOfOrders",
      "outputs": [
        {
          "internalType": "uint256",
          "name": "",
          "type": "uint256"
        }
      ],
      "stateMutability": "view",
      "type": "function"
    },
    {
      "inputs": [
        {
          "internalType": "uint256",
          "name": "",
          "type": "uint256"
        }
      ],
      "name": "orderMap",
      "outputs": [
        {
          "internalType": "address",
          "name": "buyer",
          "type": "address"
        },
        {
          "internalType": "address",
          "name": "seller",
          "type": "address"
        },
        {
          "internalType": "uint256",
          "name": "price",
          "type": "uint256"
        },
        {
          "internalType": "uint256",
          "name": "duration",
          "type": "uint256"
        },
        {
          "internalType": "uint256",
          "name": "buyTime",
          "type": "uint256"
        }
      ],
      "stateMutability": "view",
      "type": "function"
    },
    {
      "inputs": [],
      "name": "orderNumber",
      "outputs": [
        {
          "internalType": "uint256",
          "name": "",
          "type": "uint256"
        }
      ],
      "stateMutability": "view",
      "type": "function"
    },
    {
      "inputs": [
        {
          "internalType": "uint256",
          "name": "price",
          "type": "uint256"
        },
        {
          "internalType": "uint256",
          "name": "duration",
          "type": "uint256"
        }
      ],
      "name": "sellMessage",
      "outputs": [],
      "stateMutability": "nonpayable",
      "type": "function"
    },
    {
      "inputs": [
        {
          "internalType": "uint256",
          "name": "_orderNumber",
          "type": "uint256"
        }
      ],
      "name": "withdrawSoldOrder",
      "outputs": [],
      "stateMutability": "payable",
      "type": "function"
    }
  ],
  "bytecode": "0x60806040526000805534801561001457600080fd5b506117d3806100246000396000f3fe6080604052600436106100865760003560e01c8063b04dd81b11610059578063b04dd81b14610141578063d09ef2411461016c578063df900e28146101a9578063e888a4d1146101d4578063ec06cf0a1461021157610086565b80630ed706c51461008b5780631cf3cd07146100a75780635429d795146100e85780639baaba3014610104575b600080fd5b6100a560048036038101906100a09190610f1c565b61023a565b005b3480156100b357600080fd5b506100ce60048036038101906100c99190610f1c565b610779565b6040516100df959493929190610f99565b60405180910390f35b61010260048036038101906100fd9190610f1c565b6107ef565b005b34801561011057600080fd5b5061012b60048036038101906101269190611018565b6109c5565b6040516101389190611103565b60405180910390f35b34801561014d57600080fd5b50610156610a5c565b6040516101639190611125565b60405180910390f35b34801561017857600080fd5b50610193600480360381019061018e9190610f1c565b610a62565b6040516101a091906111b7565b60405180910390f35b3480156101b557600080fd5b506101be610b59565b6040516101cb9190611125565b60405180910390f35b3480156101e057600080fd5b506101fb60048036038101906101f691906111d2565b610b62565b6040516102089190611125565b60405180910390f35b34801561021d57600080fd5b5061023860048036038101906102339190611212565b610b93565b005b60006002600083815260200190815260200160002060000160009054906101000a900473ffffffffffffffffffffffffffffffffffffffff1673ffffffffffffffffffffffffffffffffffffffff163373ffffffffffffffffffffffffffffffffffffffff16148061030d57506002600083815260200190815260200160002060010160009054906101000a900473ffffffffffffffffffffffffffffffffffffffff1673ffffffffffffffffffffffffffffffffffffffff163373ffffffffffffffffffffffffffffffffffffffff16145b90508061034f576040517f08c379a0000000000000000000000000000000000000000000000000000000008152600401610346906112d5565b60405180910390fd5b60006002600084815260200190815260200160002060020154036103a8576040517f08c379a000000000000000000000000000000000000000000000000000000000815260040161039f90611341565b60405180910390fd5b600073ffffffffffffffffffffffffffffffffffffffff166002600084815260200190815260200160002060000160009054906101000a900473ffffffffffffffffffffffffffffffffffffffff1673ffffffffffffffffffffffffffffffffffffffff160361044d576040517f08c379a0000000000000000000000000000000000000000000000000000000008152600401610444906113ad565b60405180910390fd5b6000806000600260008681526020019081526020016000206004015442101561049657600092506002600086815260200190815260200160002060020154905060009150610599565b60006002600087815260200190815260200160002060040154426104ba91906113fc565b9050600260008781526020019081526020016000206003015481111561050057600193506002600087815260200190815260200160002060020154925060009150610597565b600260008781526020019081526020016000206003015481610522919061145f565b60026000888152602001908152602001600020600201546105439190611490565b9250600260008781526020019081526020016000206003015481610567919061145f565b600161057391906113fc565b60026000888152602001908152602001600020600201546105949190611490565b91505b505b600260008681526020019081526020016000206002015482826105bc91906114d2565b146105fc576040517f08c379a00000000000000000000000000000000000000000000000000000000081526004016105f390611552565b60405180910390fd5b47828261060991906114d2565b111561064a576040517f08c379a0000000000000000000000000000000000000000000000000000000008152600401610641906115e4565b60405180910390fd5b600081146106d0576002600086815260200190815260200160002060000160009054906101000a900473ffffffffffffffffffffffffffffffffffffffff1673ffffffffffffffffffffffffffffffffffffffff166108fc829081150290604051600060405180830381858888f193505050501580156106ce573d6000803e3d6000fd5b505b60008214610756576002600086815260200190815260200160002060010160009054906101000a900473ffffffffffffffffffffffffffffffffffffffff1673ffffffffffffffffffffffffffffffffffffffff166108fc839081150290604051600060405180830381858888f19350505050158015610754573d6000803e3d6000fd5b505b600060026000878152602001908152602001600020600201819055505050505050565b60026020528060005260406000206000915090508060000160009054906101000a900473ffffffffffffffffffffffffffffffffffffffff16908060010160009054906101000a900473ffffffffffffffffffffffffffffffffffffffff16908060020154908060030154908060040154905085565b6000600260008381526020019081526020016000206002015403610848576040517f08c379a000000000000000000000000000000000000000000000000000000000815260040161083f90611676565b60405180910390fd5b600073ffffffffffffffffffffffffffffffffffffffff166002600083815260200190815260200160002060000160009054906101000a900473ffffffffffffffffffffffffffffffffffffffff1673ffffffffffffffffffffffffffffffffffffffff16146108ed576040517f08c379a00000000000000000000000000000000000000000000000000000000081526004016108e4906116e2565b60405180910390fd5b60026000828152602001908152602001600020600201543414610945576040517f08c379a000000000000000000000000000000000000000000000000000000000815260040161093c9061174e565b60405180910390fd5b336002600083815260200190815260200160002060000160006101000a81548173ffffffffffffffffffffffffffffffffffffffff021916908373ffffffffffffffffffffffffffffffffffffffff160217905550610e10426109a891906114d2565b600260008381526020019081526020016000206004018190555050565b6060600160008373ffffffffffffffffffffffffffffffffffffffff1673ffffffffffffffffffffffffffffffffffffffff168152602001908152602001600020805480602002602001604051908101604052809291908181526020018280548015610a5057602002820191906000526020600020905b815481526020019060010190808311610a3c575b50505050509050919050565b60005481565b610a6a610e1c565b600260008381526020019081526020016000206040518060a00160405290816000820160009054906101000a900473ffffffffffffffffffffffffffffffffffffffff1673ffffffffffffffffffffffffffffffffffffffff1673ffffffffffffffffffffffffffffffffffffffff1681526020016001820160009054906101000a900473ffffffffffffffffffffffffffffffffffffffff1673ffffffffffffffffffffffffffffffffffffffff1673ffffffffffffffffffffffffffffffffffffffff16815260200160028201548152602001600382015481526020016004820154815250509050919050565b60008054905090565b60016020528160005260406000208181548110610b7e57600080fd5b90600052602060002001600091509150505481565b60008203610ba057600080fd5b60008103610bad57600080fd5b6000600260008054815260200190815260200160002060000160006101000a81548173ffffffffffffffffffffffffffffffffffffffff021916908373ffffffffffffffffffffffffffffffffffffffff16021790555033600260008054815260200190815260200160002060010160006101000a81548173ffffffffffffffffffffffffffffffffffffffff021916908373ffffffffffffffffffffffffffffffffffffffff160217905550816002600080548152602001908152602001600020600201819055508060026000805481526020019081526020016000206003018190555060006002600080548152602001908152602001600020600401819055506000600160003373ffffffffffffffffffffffffffffffffffffffff1673ffffffffffffffffffffffffffffffffffffffff1681526020019081526020016000208054905003610d9757600067ffffffffffffffff811115610d1457610d1361176e565b5b604051908082528060200260200182016040528015610d425781602001602082028036833780820191505090505b50600160003373ffffffffffffffffffffffffffffffffffffffff1673ffffffffffffffffffffffffffffffffffffffff1681526020019081526020016000209080519060200190610d95929190610e77565b505b600160003373ffffffffffffffffffffffffffffffffffffffff1673ffffffffffffffffffffffffffffffffffffffff16815260200190815260200160002060005490806001815401808255809150506001900390600052602060002001600090919091909150556001600080828254610e1191906114d2565b925050819055505050565b6040518060a00160405280600073ffffffffffffffffffffffffffffffffffffffff168152602001600073ffffffffffffffffffffffffffffffffffffffff1681526020016000815260200160008152602001600081525090565b828054828255906000526020600020908101928215610eb3579160200282015b82811115610eb2578251825591602001919060010190610e97565b5b509050610ec09190610ec4565b5090565b5b80821115610edd576000816000905550600101610ec5565b5090565b600080fd5b6000819050919050565b610ef981610ee6565b8114610f0457600080fd5b50565b600081359050610f1681610ef0565b92915050565b600060208284031215610f3257610f31610ee1565b5b6000610f4084828501610f07565b91505092915050565b600073ffffffffffffffffffffffffffffffffffffffff82169050919050565b6000610f7482610f49565b9050919050565b610f8481610f69565b82525050565b610f9381610ee6565b82525050565b600060a082019050610fae6000830188610f7b565b610fbb6020830187610f7b565b610fc86040830186610f8a565b610fd56060830185610f8a565b610fe26080830184610f8a565b9695505050505050565b610ff581610f69565b811461100057600080fd5b50565b60008135905061101281610fec565b92915050565b60006020828403121561102e5761102d610ee1565b5b600061103c84828501611003565b91505092915050565b600081519050919050565b600082825260208201905092915050565b6000819050602082019050919050565b61107a81610ee6565b82525050565b600061108c8383611071565b60208301905092915050565b6000602082019050919050565b60006110b082611045565b6110ba8185611050565b93506110c583611061565b8060005b838110156110f65781516110dd8882611080565b97506110e883611098565b9250506001810190506110c9565b5085935050505092915050565b6000602082019050818103600083015261111d81846110a5565b905092915050565b600060208201905061113a6000830184610f8a565b92915050565b61114981610f69565b82525050565b60a0820160008201516111656000850182611140565b5060208201516111786020850182611140565b50604082015161118b6040850182611071565b50606082015161119e6060850182611071565b5060808201516111b16080850182611071565b50505050565b600060a0820190506111cc600083018461114f565b92915050565b600080604083850312156111e9576111e8610ee1565b5b60006111f785828601611003565b925050602061120885828601610f07565b9150509250929050565b6000806040838503121561122957611228610ee1565b5b600061123785828601610f07565b925050602061124885828601610f07565b9150509250929050565b600082825260208201905092915050565b7f596f7520617265206e6f7420746865206275796572206f722073656c6c65722060008201527f6f662074686973206f7264657200000000000000000000000000000000000000602082015250565b60006112bf602d83611252565b91506112ca82611263565b604082019050919050565b600060208201905081810360008301526112ee816112b2565b9050919050565b7f4f7264657220616c72656164792077697468647261776e210000000000000000600082015250565b600061132b601883611252565b9150611336826112f5565b602082019050919050565b6000602082019050818103600083015261135a8161131e565b9050919050565b7f4f72646572206e6576657220626f756768742e00000000000000000000000000600082015250565b6000611397601383611252565b91506113a282611361565b602082019050919050565b600060208201905081810360008301526113c68161138a565b9050919050565b7f4e487b7100000000000000000000000000000000000000000000000000000000600052601160045260246000fd5b600061140782610ee6565b915061141283610ee6565b925082820390508181111561142a576114296113cd565b5b92915050565b7f4e487b7100000000000000000000000000000000000000000000000000000000600052601260045260246000fd5b600061146a82610ee6565b915061147583610ee6565b92508261148557611484611430565b5b828204905092915050565b600061149b82610ee6565b91506114a683610ee6565b92508282026114b481610ee6565b915082820484148315176114cb576114ca6113cd565b5b5092915050565b60006114dd82610ee6565b91506114e883610ee6565b9250828201905080821115611500576114ff6113cd565b5b92915050565b7f5072696365206469646e2774206164642075702070726f7065726c7900000000600082015250565b600061153c601c83611252565b915061154782611506565b602082019050919050565b6000602082019050818103600083015261156b8161152f565b9050919050565b7f436f6e747261637420646f6573206e6f74206861766520656e6f75676820626160008201527f6c616e6365000000000000000000000000000000000000000000000000000000602082015250565b60006115ce602583611252565b91506115d982611572565b604082019050919050565b600060208201905081810360008301526115fd816115c1565b9050919050565b7f4f7264657220646f6573206e6f74206578697374206f7220776173207769746860008201527f647261776e000000000000000000000000000000000000000000000000000000602082015250565b6000611660602583611252565b915061166b82611604565b604082019050919050565b6000602082019050818103600083015261168f81611653565b9050919050565b7f4f7264657220616c726561647920626f756768742e0000000000000000000000600082015250565b60006116cc601583611252565b91506116d782611696565b602082019050919050565b600060208201905081810360008301526116fb816116bf565b9050919050565b7f4574682073656e742069732074686520696e636f727265637420616d6f756e74600082015250565b6000611738602083611252565b915061174382611702565b602082019050919050565b600060208201905081810360008301526117678161172b565b9050919050565b7f4e487b7100000000000000000000000000000000000000000000000000000000600052604160045260246000fdfea2646970667358221220d59a5473ccfe47d46083e19d4a3c93b89660453b937fdfd46e1b24e8e3316a1e64736f6c63430008130033",
  "linkReferences": {},
  "deployedLinkReferences": {}
}