{
  "_format": "hh-sol-artifact-1",
  "contractName": "APIKeyEscrow",
  "sourceName": "contracts/APIKeyEscrow.sol",
  "abi": [
    {
      "inputs": [],
      "stateMutability": "nonpayable",
      "type": "constructor"
    },
    {
      "anonymous": false,
      "inputs": [
        {
          "indexed": false,
          "internalType": "uint256",
          "name": "orderNumber",
          "type": "uint256"
        },
        {
          "indexed": false,
          "internalType": "address",
          "name": "buyer",
          "type": "address"
        },
        {
          "indexed": false,
          "internalType": "uint256",
          "name": "startTime",
          "type": "uint256"
        },
        {
          "indexed": false,
          "internalType": "uint256",
          "name": "price",
          "type": "uint256"
        },
        {
          "indexed": false,
          "internalType": "uint256",
          "name": "duration",
          "type": "uint256"
        }
      ],
      "name": "BuyOrderEvent",
      "type": "event"
    },
    {
      "anonymous": false,
      "inputs": [
        {
          "indexed": false,
          "internalType": "uint256",
          "name": "orderNumber",
          "type": "uint256"
        },
        {
          "indexed": false,
          "internalType": "address",
          "name": "withdrawer",
          "type": "address"
        },
        {
          "indexed": false,
          "internalType": "uint256",
          "name": "ethToBuyer",
          "type": "uint256"
        },
        {
          "indexed": false,
          "internalType": "uint256",
          "name": "ethToSeller",
          "type": "uint256"
        },
        {
          "indexed": false,
          "internalType": "uint256",
          "name": "withdrawTime",
          "type": "uint256"
        }
      ],
      "name": "CancelOrderEvent",
      "type": "event"
    },
    {
      "anonymous": false,
      "inputs": [
        {
          "indexed": false,
          "internalType": "uint256",
          "name": "orderNumber",
          "type": "uint256"
        },
        {
          "indexed": false,
          "internalType": "address",
          "name": "seller",
          "type": "address"
        },
        {
          "indexed": false,
          "internalType": "uint256",
          "name": "price",
          "type": "uint256"
        },
        {
          "indexed": false,
          "internalType": "uint256",
          "name": "duration",
          "type": "uint256"
        }
      ],
      "name": "SellOrderEvent",
      "type": "event"
    },
    {
      "inputs": [
        {
          "internalType": "uint256",
          "name": "_orderNumber",
          "type": "uint256"
        }
      ],
      "name": "buyMessage",
      "outputs": [],
      "stateMutability": "payable",
      "type": "function"
    },
    {
      "inputs": [
        {
          "internalType": "uint256",
          "name": "_orderNumber",
          "type": "uint256"
        }
      ],
      "name": "cancelOrder",
      "outputs": [],
      "stateMutability": "payable",
      "type": "function"
    },
    {
      "inputs": [
        {
          "internalType": "address",
          "name": "user",
          "type": "address"
        }
      ],
      "name": "getAddressOrder",
      "outputs": [
        {
          "internalType": "uint256[]",
          "name": "",
          "type": "uint256[]"
        }
      ],
      "stateMutability": "view",
      "type": "function"
    },
    {
      "inputs": [
        {
          "internalType": "uint256",
          "name": "_orderNumber",
          "type": "uint256"
        }
      ],
      "name": "getOrder",
      "outputs": [
        {
          "components": [
            {
              "internalType": "address",
              "name": "buyer",
              "type": "address"
            },
            {
              "internalType": "address",
              "name": "seller",
              "type": "address"
            },
            {
              "internalType": "uint256",
              "name": "price",
              "type": "uint256"
            },
            {
              "internalType": "uint256",
              "name": "duration",
              "type": "uint256"
            },
            {
              "internalType": "uint256",
              "name": "startTime",
              "type": "uint256"
            }
          ],
          "internalType": "struct APIKeyEscrow.Order",
          "name": "",
          "type": "tuple"
        }
      ],
      "stateMutability": "view",
      "type": "function"
    },
    {
      "inputs": [],
      "name": "getOrderNextNumber",
      "outputs": [
        {
          "internalType": "uint256",
          "name": "",
          "type": "uint256"
        }
      ],
      "stateMutability": "view",
      "type": "function"
    },
    {
      "inputs": [
        {
          "internalType": "address",
          "name": "",
          "type": "address"
        },
        {
          "internalType": "uint256",
          "name": "",
          "type": "uint256"
        }
      ],
      "name": "listOfOrders",
      "outputs": [
        {
          "internalType": "uint256",
          "name": "",
          "type": "uint256"
        }
      ],
      "stateMutability": "view",
      "type": "function"
    },
    {
      "inputs": [
        {
          "internalType": "uint256",
          "name": "",
          "type": "uint256"
        }
      ],
      "name": "orderMap",
      "outputs": [
        {
          "internalType": "address",
          "name": "buyer",
          "type": "address"
        },
        {
          "internalType": "address",
          "name": "seller",
          "type": "address"
        },
        {
          "internalType": "uint256",
          "name": "price",
          "type": "uint256"
        },
        {
          "internalType": "uint256",
          "name": "duration",
          "type": "uint256"
        },
        {
          "internalType": "uint256",
          "name": "startTime",
          "type": "uint256"
        }
      ],
      "stateMutability": "view",
      "type": "function"
    },
    {
      "inputs": [],
      "name": "orderNumber",
      "outputs": [
        {
          "internalType": "uint256",
          "name": "",
          "type": "uint256"
        }
      ],
      "stateMutability": "view",
      "type": "function"
    },
    {
      "inputs": [
        {
          "internalType": "uint256",
          "name": "price",
          "type": "uint256"
        },
        {
          "internalType": "uint256",
          "name": "duration",
          "type": "uint256"
        }
      ],
      "name": "sellMessage",
      "outputs": [],
      "stateMutability": "nonpayable",
      "type": "function"
    }
  ],
  "bytecode": "0x60806040526000805534801561001457600080fd5b50611917806100246000396000f3fe6080604052600436106100865760003560e01c8063b04dd81b11610059578063b04dd81b14610141578063d09ef2411461016c578063df900e28146101a9578063e888a4d1146101d4578063ec06cf0a1461021157610086565b80631cf3cd071461008b578063514fcac7146100cc5780635429d795146100e85780639baaba3014610104575b600080fd5b34801561009757600080fd5b506100b260048036038101906100ad9190610fc8565b61023a565b6040516100c3959493929190611045565b60405180910390f35b6100e660048036038101906100e19190610fc8565b6102b0565b005b61010260048036038101906100fd9190610fc8565b61085f565b005b34801561011057600080fd5b5061012b600480360381019061012691906110c4565b610aa6565b60405161013891906111af565b60405180910390f35b34801561014d57600080fd5b50610156610b3d565b60405161016391906111d1565b60405180910390f35b34801561017857600080fd5b50610193600480360381019061018e9190610fc8565b610b43565b6040516101a09190611263565b60405180910390f35b3480156101b557600080fd5b506101be610c3a565b6040516101cb91906111d1565b60405180910390f35b3480156101e057600080fd5b506101fb60048036038101906101f6919061127e565b610c43565b60405161020891906111d1565b60405180910390f35b34801561021d57600080fd5b50610238600480360381019061023391906112be565b610c74565b005b60026020528060005260406000206000915090508060000160009054906101000a900473ffffffffffffffffffffffffffffffffffffffff16908060010160009054906101000a900473ffffffffffffffffffffffffffffffffffffffff16908060020154908060030154908060040154905085565b60006002600083815260200190815260200160002060000160009054906101000a900473ffffffffffffffffffffffffffffffffffffffff1673ffffffffffffffffffffffffffffffffffffffff163373ffffffffffffffffffffffffffffffffffffffff16148061038357506002600083815260200190815260200160002060010160009054906101000a900473ffffffffffffffffffffffffffffffffffffffff1673ffffffffffffffffffffffffffffffffffffffff163373ffffffffffffffffffffffffffffffffffffffff16145b9050806103c5576040517f08c379a00000000000000000000000000000000000000000000000000000000081526004016103bc90611381565b60405180910390fd5b600060026000848152602001908152602001600020600201540361041e576040517f08c379a0000000000000000000000000000000000000000000000000000000008152600401610415906113ed565b60405180910390fd5b600073ffffffffffffffffffffffffffffffffffffffff166002600084815260200190815260200160002060000160009054906101000a900473ffffffffffffffffffffffffffffffffffffffff1673ffffffffffffffffffffffffffffffffffffffff16036104c3576040517f08c379a00000000000000000000000000000000000000000000000000000000081526004016104ba90611459565b60405180910390fd5b6000806002600085815260200190815260200160002060040154421015610506576002600085815260200190815260200160002060020154905060009150610641565b600060026000868152602001908152602001600020600401544261052a91906114a8565b9050600260008681526020019081526020016000206003015481111561056c57600260008681526020019081526020016000206002015492506000915061063f565b6000600260008781526020019081526020016000206003015460648361059291906114dc565b61059c919061154d565b9050600060026000888152602001908152602001600020600301546064846105c491906114dc565b6105ce919061154d565b60646105da91906114a8565b9050606482600260008a81526020019081526020016000206002015461060091906114dc565b61060a919061154d565b9450606481600260008a81526020019081526020016000206002015461063091906114dc565b61063a919061154d565b935050505b505b60026000858152602001908152602001600020600201548282610664919061157e565b146106a4576040517f08c379a000000000000000000000000000000000000000000000000000000000815260040161069b906115fe565b60405180910390fd5b4782826106b1919061157e565b11156106f2576040517f08c379a00000000000000000000000000000000000000000000000000000000081526004016106e990611690565b60405180910390fd5b60008114610778576002600085815260200190815260200160002060000160009054906101000a900473ffffffffffffffffffffffffffffffffffffffff1673ffffffffffffffffffffffffffffffffffffffff166108fc829081150290604051600060405180830381858888f19350505050158015610776573d6000803e3d6000fd5b505b600082146107fe576002600085815260200190815260200160002060010160009054906101000a900473ffffffffffffffffffffffffffffffffffffffff1673ffffffffffffffffffffffffffffffffffffffff166108fc839081150290604051600060405180830381858888f193505050501580156107fc573d6000803e3d6000fd5b505b600060026000868152602001908152602001600020600201819055507f8dfcf4e88bf1e556b34cb5d4f4a26f55928f5da3a590256c1345a041f022010784338385426040516108519594939291906116b0565b60405180910390a150505050565b60006002600083815260200190815260200160002060020154036108b8576040517f08c379a00000000000000000000000000000000000000000000000000000000081526004016108af90611775565b60405180910390fd5b600073ffffffffffffffffffffffffffffffffffffffff166002600083815260200190815260200160002060000160009054906101000a900473ffffffffffffffffffffffffffffffffffffffff1673ffffffffffffffffffffffffffffffffffffffff161461095d576040517f08c379a0000000000000000000000000000000000000000000000000000000008152600401610954906117e1565b60405180910390fd5b600260008281526020019081526020016000206002015434146109b5576040517f08c379a00000000000000000000000000000000000000000000000000000000081526004016109ac9061184d565b60405180910390fd5b336002600083815260200190815260200160002060000160006101000a81548173ffffffffffffffffffffffffffffffffffffffff021916908373ffffffffffffffffffffffffffffffffffffffff1602179055506000610e1042610a1a919061157e565b90508060026000848152602001908152602001600020600401819055507f912f60a688573ee8c4a7b13a20e09a67e0e00152957087a72d3f999d85cb701782338360026000878152602001908152602001600020600201546002600088815260200190815260200160002060030154604051610a9a9594939291906116b0565b60405180910390a15050565b6060600160008373ffffffffffffffffffffffffffffffffffffffff1673ffffffffffffffffffffffffffffffffffffffff168152602001908152602001600020805480602002602001604051908101604052809291908181526020018280548015610b3157602002820191906000526020600020905b815481526020019060010190808311610b1d575b50505050509050919050565b60005481565b610b4b610ec8565b600260008381526020019081526020016000206040518060a00160405290816000820160009054906101000a900473ffffffffffffffffffffffffffffffffffffffff1673ffffffffffffffffffffffffffffffffffffffff1673ffffffffffffffffffffffffffffffffffffffff1681526020016001820160009054906101000a900473ffffffffffffffffffffffffffffffffffffffff1673ffffffffffffffffffffffffffffffffffffffff1673ffffffffffffffffffffffffffffffffffffffff16815260200160028201548152602001600382015481526020016004820154815250509050919050565b60008054905090565b60016020528160005260406000208181548110610c5f57600080fd5b90600052602060002001600091509150505481565b60008203610c8157600080fd5b60008103610c8e57600080fd5b33600260008054815260200190815260200160002060010160006101000a81548173ffffffffffffffffffffffffffffffffffffffff021916908373ffffffffffffffffffffffffffffffffffffffff16021790555081600260008054815260200190815260200160002060020181905550806002600080548152602001908152602001600020600301819055506000600160003373ffffffffffffffffffffffffffffffffffffffff1673ffffffffffffffffffffffffffffffffffffffff1681526020019081526020016000208054905003610e0457600067ffffffffffffffff811115610d8157610d8061186d565b5b604051908082528060200260200182016040528015610daf5781602001602082028036833780820191505090505b50600160003373ffffffffffffffffffffffffffffffffffffffff1673ffffffffffffffffffffffffffffffffffffffff1681526020019081526020016000209080519060200190610e02929190610f23565b505b600160003373ffffffffffffffffffffffffffffffffffffffff1673ffffffffffffffffffffffffffffffffffffffff16815260200190815260200160002060005490806001815401808255809150506001900390600052602060002001600090919091909150557fde066361e54e969f691a584609a7da6ab349d661e976e84a9d0fad9848ec6faf600054338484604051610ea3949392919061189c565b60405180910390a16001600080828254610ebd919061157e565b925050819055505050565b6040518060a00160405280600073ffffffffffffffffffffffffffffffffffffffff168152602001600073ffffffffffffffffffffffffffffffffffffffff1681526020016000815260200160008152602001600081525090565b828054828255906000526020600020908101928215610f5f579160200282015b82811115610f5e578251825591602001919060010190610f43565b5b509050610f6c9190610f70565b5090565b5b80821115610f89576000816000905550600101610f71565b5090565b600080fd5b6000819050919050565b610fa581610f92565b8114610fb057600080fd5b50565b600081359050610fc281610f9c565b92915050565b600060208284031215610fde57610fdd610f8d565b5b6000610fec84828501610fb3565b91505092915050565b600073ffffffffffffffffffffffffffffffffffffffff82169050919050565b600061102082610ff5565b9050919050565b61103081611015565b82525050565b61103f81610f92565b82525050565b600060a08201905061105a6000830188611027565b6110676020830187611027565b6110746040830186611036565b6110816060830185611036565b61108e6080830184611036565b9695505050505050565b6110a181611015565b81146110ac57600080fd5b50565b6000813590506110be81611098565b92915050565b6000602082840312156110da576110d9610f8d565b5b60006110e8848285016110af565b91505092915050565b600081519050919050565b600082825260208201905092915050565b6000819050602082019050919050565b61112681610f92565b82525050565b6000611138838361111d565b60208301905092915050565b6000602082019050919050565b600061115c826110f1565b61116681856110fc565b93506111718361110d565b8060005b838110156111a2578151611189888261112c565b975061119483611144565b925050600181019050611175565b5085935050505092915050565b600060208201905081810360008301526111c98184611151565b905092915050565b60006020820190506111e66000830184611036565b92915050565b6111f581611015565b82525050565b60a08201600082015161121160008501826111ec565b50602082015161122460208501826111ec565b506040820151611237604085018261111d565b50606082015161124a606085018261111d565b50608082015161125d608085018261111d565b50505050565b600060a08201905061127860008301846111fb565b92915050565b6000806040838503121561129557611294610f8d565b5b60006112a3858286016110af565b92505060206112b485828601610fb3565b9150509250929050565b600080604083850312156112d5576112d4610f8d565b5b60006112e385828601610fb3565b92505060206112f485828601610fb3565b9150509250929050565b600082825260208201905092915050565b7f596f7520617265206e6f7420746865206275796572206f722073656c6c65722060008201527f6f662074686973206f7264657200000000000000000000000000000000000000602082015250565b600061136b602d836112fe565b91506113768261130f565b604082019050919050565b6000602082019050818103600083015261139a8161135e565b9050919050565b7f4f7264657220616c72656164792077697468647261776e210000000000000000600082015250565b60006113d76018836112fe565b91506113e2826113a1565b602082019050919050565b60006020820190508181036000830152611406816113ca565b9050919050565b7f4f72646572206e6576657220626f756768742e00000000000000000000000000600082015250565b60006114436013836112fe565b915061144e8261140d565b602082019050919050565b6000602082019050818103600083015261147281611436565b9050919050565b7f4e487b7100000000000000000000000000000000000000000000000000000000600052601160045260246000fd5b60006114b382610f92565b91506114be83610f92565b92508282039050818111156114d6576114d5611479565b5b92915050565b60006114e782610f92565b91506114f283610f92565b925082820261150081610f92565b9150828204841483151761151757611516611479565b5b5092915050565b7f4e487b7100000000000000000000000000000000000000000000000000000000600052601260045260246000fd5b600061155882610f92565b915061156383610f92565b9250826115735761157261151e565b5b828204905092915050565b600061158982610f92565b915061159483610f92565b92508282019050808211156115ac576115ab611479565b5b92915050565b7f5061796f757473206469646e2774206164642075702070726f7065726c790000600082015250565b60006115e8601e836112fe565b91506115f3826115b2565b602082019050919050565b60006020820190508181036000830152611617816115db565b9050919050565b7f436f6e747261637420646f6573206e6f74206861766520656e6f75676820626160008201527f6c616e6365000000000000000000000000000000000000000000000000000000602082015250565b600061167a6025836112fe565b91506116858261161e565b604082019050919050565b600060208201905081810360008301526116a98161166d565b9050919050565b600060a0820190506116c56000830188611036565b6116d26020830187611027565b6116df6040830186611036565b6116ec6060830185611036565b6116f96080830184611036565b9695505050505050565b7f4f7264657220646f6573206e6f74206578697374206f7220776173207769746860008201527f647261776e000000000000000000000000000000000000000000000000000000602082015250565b600061175f6025836112fe565b915061176a82611703565b604082019050919050565b6000602082019050818103600083015261178e81611752565b9050919050565b7f4f7264657220616c726561647920626f756768742e0000000000000000000000600082015250565b60006117cb6015836112fe565b91506117d682611795565b602082019050919050565b600060208201905081810360008301526117fa816117be565b9050919050565b7f4574682073656e742069732074686520696e636f727265637420616d6f756e74600082015250565b60006118376020836112fe565b915061184282611801565b602082019050919050565b600060208201905081810360008301526118668161182a565b9050919050565b7f4e487b7100000000000000000000000000000000000000000000000000000000600052604160045260246000fd5b60006080820190506118b16000830187611036565b6118be6020830186611027565b6118cb6040830185611036565b6118d86060830184611036565b9594505050505056fea2646970667358221220fdd8d2c01488c3cea175d026896c14026e0044ee5e9fb7fc0b030d0f60faa8fc64736f6c63430008130033",
  "linkReferences": {},
  "deployedLinkReferences": {}
}